:0402C5008E188F19E7
:1002C90030A030E4F51AF51B30A0157F0A7E007DB9
:1002D900007C00120312051BE51B70EC051A80E86F
:1002E900D3E51B9464E51A940040080519E51970D3
:1002F900020518D3E5199405E51864809480400631
:08030900751800751901AF1908
:0103110022C9
:10040000E4FDFCC3ED9FEC9E5015E4FBFA0BBB0032
:0F041000010AEB647B4A70F50DBD00010C80E41E
:01041F0022BA
:10046C00A907C2A57F017E00120400D2A7898012C1
:05047C000400C2A722EC
:10048100A907D2A57F017E001204008980D2A7129C
:050491000400C2A722D7
:100392008B188A19891AAB18AA19A91A1200D2FF46
:1003A200D3940040101204817401251AF51AE43521
:0603B20019F51980E1229B
:10043D00C2A7C2A67F3812046C7F0C12046C7F0613
:08044D0012046C7F0102046C33
:04035500AB07AA0642
:10035900C3EB9464EA64809480501E7C007D0A1289
:1003690000EBEF2430F520AE02AF037C007D0A12CA
:1003790000EBED2430F5218006752065752172E4C6
:08038900F5227B007A007920C7
:010391002249
:10049600636F756E746572206E756D6265723A0073
:1004200002080000020E000002120000021000008C
:0C04300002140000020A0000020C000090
:10000E001204A61200031204E41204EE12043D7F41
:10001E008012046C7BFF7A0479961203927FC512CC
:10002E00046CE4FFFE120355120392AF17AE1612C4
:10003E0002C5EF3395E0F5168F177FC512046CAF2E
:10004E0017AE16120355120392C3E5179405E51663
:10005E006480948040661200031204557FE87EFD92
:10006E007D007C0012050A7F107E277D007C001229
:10007E0003127FE87EFD7D007C001205017F107E5D
:10008E00277D007C001203127F917E507D007C0044
:10009E0012051C7F107E277D007C001203127F91BB
:1000AE007E507D007C001205137F107E277D007C24
:1000BE0000120312E4F516F5170200397F461204FA
:0400CE00F8020039FB
:03000B0002018768
:10018700C0E0C0D075D000C000758CFF758A9CD3C5
:10019700E50D9509E5086480F8E50C64809840044E
:1001A700C2908002D290D3E50D950FE50E6480F8DA
:1001B700E50C6480984004C2918002D291D3E50D8A
:1001C7009513E5126480F8E50C6480984004C292A8
:1001D7008002D292D3E50D9511E5106480F8E50C05
:1001E7006480984004C2938002D293D3E50D95159D
:1001F700E5146480F8E50C6480984004C29480029A
:10020700D294D3E50D950BE50A6480F8E50C64807C
:10021700984004C2958002D295050DE50D70020540
:100227000C6464450C7004F50CF50DD000D0D0D0EB
:02023700E032B3
:080312008F1F8E1E8D1D8C1C37
:10031A00E4FFFEFDFCAB1FAA1EA91DA81CD31201F7
:10032A002140277F727E00EF1F70011EEF4E70F78B
:10033A00E51F24FFF51FE51E34FFF51EE51D34FFFA
:0A034A00F51DE51C34FFF51C80C60C
:010354002286
:1004A600758901758CFF758A9CD2AFD2A9D28C2230
:0904F800EF3395E0F5088F0922AD
:06000300E4F508F50922F6
:1003B8003096137F027E007D007C00120312309677
:1003C800EF1204CE80F81204E47FE87EFD7D007C05
:0403D8000002050119
:0C04B600750E00750F50E4F512F51322CE
:0B04CE00E4F50EF50FF5127513502237
:0A04E400E4F50EF50FF512F51322F2
:090501001204B61203120204E414
:09050A001204CE1203120204E4F3
:1003DC003097137F027E007D007C00120312309751
:1003EC00EF1204D980F81204EE7F917E507D007CD0
:0403FC0000020513E3
:0C04C200751000751150E4F514F51522BA
:0B04D900E4F510F511F5147515502224
:0A04EE00E4F510F511F514F51522E0
:090513001204C21203120204EEEC
:09051C001204D91203120204EECC
:10045500750A00750B507F207E4E7D007C001203CF
:0704650012E4F50AF50B2279
:03000000020239C0
:0C023900787FE4F6D8FD75812202028077
:1000D200BB010689828A83E0225002E722BBFE022C
:0900E200E32289828A83E493225F
:1000EB00C2D5EC30E709B2D5E4C39DFDE49CFCEE30
:1000FB0030E715B2D5E4C39FFFE49EFE120132C375
:10010B00E49DFDE49CFC800312013230D507C3E46F
:06011B009FFFE49EFE229E
:10012100EB9FF5F0EA9E42F0E99D42F0E89C45F034
:0101310022AB
:1002450002000EE493A3F8E493A34003F68001F2C1
:1002550008DFF48029E493A3F85407240CC8C333BA
:10026500C4540F4420C8834004F456800146F6DF89
:10027500E4800B0102040810204080900420E47EF5
:10028500019360BCA3FF543F30E509541FFEE4937E
:10029500A360010ECF54C025E060A840B8E493A345
:1002A500FAE493A3F8E493A3C8C582C8CAC583CA70
:1002B500F0A3C8C582C8CAC583CADFE9DEE780BE28
:01043C0000BF
:10013200BC000BBE0029EF8DF084FFADF022E4CCB1
:10014200F875F008EF2FFFEE33FEEC33FCEE9DEC7A
:10015200984005FCEE9DFE0FD5F0E9E4CEFD22EDC0
:10016200F8F5F0EE8420D21CFEADF075F008EF2F0A
:10017200FFED33FD4007985006D5F0F222C398FDFB
:050182000FD5F0EA2298
:00000001FF
